:100000000C94C1000C9429030C9402030C94E90095
:100010000C94E9000C94E9000C94E9000C94E900BC
:100020000C94E9000C94E9000C94E9000C94E900AC
:100030000C94E9000C94E9000C94E9000C94E9009C
:100040000C9482070C94E9000C94E9000C94E900EC
:100050000C94E9000C94E9000C94E9000C94E9007C
:100060000C9480030C94E90007634236B79BD8A731
:100070001A39685618AEBAAB558C1D3CB7CC5763CD
:10008000BD6DEDFD753EF6177231BF000000803F7B
:1000900008000000BE922449123EABAAAA2ABECD97
:1000A000CCCC4C3E00000080BEABAAAAAA3E000009
:1000B0000000BF000000803F000000000008417801
:1000C000D3BB4387D1133D190E3CC3BD4282AD2B38
:1000D0003E68EC8276BED98FE1A93E4C80EFFFBE30
:1000E00001C4FF7F3F00000000004E414E494E49D1
:1000F0005459494E46CDCCCC3D0AD7233C17B7D1F5
:100100003877CC2B329595E6241FB14F0A0000209A
:10011000410000C84200401C4620BCBE4CCA1B0E19
:100120005AAEC59D7400000000230026002900007F
:1001300000000800020100000304070000000000A6
:1001400000000000000000250028002B0000000037
:1001500000240027002A0004040404040404040208
:100160000202020202030303030303010204081054
:100170002040800102040810200102040810200021
:10018000670B11241FBECFEFD8E0DEBFCDBF22E04A
:10019000AEEAB1E001C01D92AA3FB207E1F711E05B
:1001A000A0E0B1E0E0E5FCE202C005900D92AE3ABD
:1001B000B107D9F710E0C1ECD0E004C02197FE01EF
:1001C0000E947111C03CD107C9F70E94CC070C9462
:1001D00026160C9400000895CF92DF92EF92FF92C2
:1001E0000F931F93CF93DF936C017A018B01C0E0D3
:1001F000D0E0CE15DF0581F0D8016D918D01D601DB
:10020000ED91FC910190F081E02DC6010995892BBB
:1002100011F02196EECF7E01C701DF91CF911F91A2
:100220000F91FF90EF90DF90CF90089585ED809330
:10023000BC008091BC0084FDFCCF10921B0208958D
:100240004091D201262F30E0240F311D213231059B
:10025000DCF420911B022430C9F4FC0180E090E022
:10026000861758F43091D2012191DC01AE54BE4F73
:10027000A30FB11D2C930196F3CF8091D201680F8B
:100280006093D20180E0089581E0089582E00895AE
:1002900008958FEF9FEF08958FEF9FEF089580915E
:1002A000B10190E09195819591090895CF92DF92E7
:1002B000EF92FF920F931F93CF93DF937C01CB01BB
:1002C0008A0120911C02222389F0EB016B01C40EEC
:1002D000D51ECC15DD0569F06991D701ED91FC9132
:1002E0000190F081E02DC7010995F3CF642F0E94A2
:1002F0002001C801DF91CF911F910F91FF90EF90E6
:10030000DF90CF900895CF93DF931F92CDB7DEB7E4
:10031000698320911C022223D1F020913F022032D8
:1003200040F021E030E0FC013383228380E090E064
:1003300015C080911D02E82FF0E0E25EFD4F99812B
:1003400090838F5F80931D0280933F0205C061E020
:10035000CE0101960E94200181E090E00F90DF9194
:10036000CF910895CF93FC01C48121E020931C021A
:10037000C0933E0210921D0210923F028385682BAB
:1003800081E592E00E94830190913F02913208F052
:1003900045C080911B028111FCCF82E080931B023B
:1003A00081E080931A028FEF809319021092180255
:1003B00090931702AEE1B2E0E7EFF1E080E098172A
:1003C00021F02D9121938F5FFACF1092F601809149
:1003D000F601CC0FC82BC093F6018091F501813056
:1003E00061F41092F5018091F6018093BB00809139
:1003F000BC0083FDF8CF85EC01C085EE8093BC0086
:1004000080911B028230E1F3809119028F3F31F01D
:1004100080911902803211F08091190210921D0210
:1004200010923F0210921C02CF910895089580E02F
:1004300090E00895F89489B18C708093B001809118
:10044000B0018C3021F48091AF01811109C08091FD
:10045000B001883019F481E08093AE01789408955A
:1004600080914202909143020196909343028093BF
:1004700042021092AF011092AE01F0CFF89489B110
:100480008C708093B0018091B0018C3021F4809108
:10049000AE01811109C08091B001843019F481E06E
:1004A0008093AF0178940895809142029091430225
:1004B000019790934302809342021092AF011092F1
:1004C000AE01F0CF862F642F0C94F506CF93DF9307
:1004D000FC01218530E0F901E15DFE4F8491F901D5
:1004E000E559FE4FD491F901E95AFE4FC491CC234E
:1004F00079F081110E94CC06EC2FF0E0EE0FFF1F87
:10050000EB5DFE4FA591B491EC91ED2381E009F4F0
:1005100080E08170DF91CF9108950E945E134F9229
:100520005F926F927F928F929F92AF92BF92CF9283
:10053000DF92EF92FF920F931F93CF93DF93EC0123
:10054000162F072F49015A01CA01B9010E94B10FA4
:100550006B017C016E817F81072E000C880B990B4B
:100560000E94610D9B01AC0160E070E080E291E4CB
:100570000E94EC0F2B013C01B6010D2C000C880BE6
:10058000990B0E94610D9B01AC01C501B4010E9451
:10059000D20EA30192010E94C00D4B015C0120E02C
:1005A00030E0A9010E94E70F18161CF4C501B40140
:1005B00003C0C501B40190580E94B10F7F936F939F
:1005C000DF92CF922896DF93CF930F931F930E94D1
:1005D00073138DB79EB708960FB6F8949EBF0FBEE3
:1005E0008DBFDF91CF911F910F91FF90EF90DF9022
:1005F000CF90BF90AF909F908F907F906F905F90C3
:100600004F9008951F920F920FB60F9211242F93BF
:100610003F934F935F936F937F938F939F93AF938A
:10062000BF93EF93FF93E0910201F09103010995CD
:10063000FF91EF91BF91AF919F918F917F916F91BA
:100640005F914F913F912F910F900FBE0F901F9090
:1006500018951F920F920FB60F9211242F933F936C
:100660004F935F936F937F938F939F93AF93BF93BA
:10067000EF93FF93E0910001F09101010995FF9143
:10068000EF91BF91AF919F918F917F916F915F910A
:100690004F913F912F910F900FBE0F901F90189583
:1006A0000F931F93CF938C01C62F0E94B2016C2F22
:1006B0006460C8010E94B2016C2F6B7FC8010E9468
:1006C000B20183EC90E00197F1F7CF911F910F9168
:1006D00008950F931F93CF938C01C62F607F6160A5
:1006E0000E94500380E1C89FB00111246160C801DD
:1006F0000E94500381E090E0CF911F910F910895E7
:100700001F920F920FB60F9211242F933F934F9386
:100710005F936F937F938F939F93AF93BF93EF9369
:10072000FF938091B900887F803609F49CC068F5FA
:10073000883209F45BC090F4803109F454C038F475
:10074000882309F4F2C0883009F44DC0F2C0883122
:1007500009F44CC0803209F45DC0EBC0803409F468
:1007600068C048F4803309F455C0883309F0E1C00B
:1007700080931902D4C0803509F44FC0883509F43C
:100780005DC0883409F0D5C0D2C0883909F4C3C02F
:10079000A8F4883709F467C038F4883609F463C0D0
:1007A000803709F460C0C5C0883809F4B4C0803906
:1007B00009F45FC0803809F0BCC05BC0803B09F41D
:1007C00084C038F4803A09F466C0883A09F47DC0E0
:1007D000B0C0803C09F4A3C0883C09F4A0C0883BA9
:1007E00009F486C0A6C08091F60110C0909118024D
:1007F00080911702981770F5E091180281E08E0F32
:1008000080931802F0E0E950FE4F80818093BB0096
:1008100085EC82C0809319028AC0E091180281E0C1
:100820008E0F809318028091BB00F0E0E950FE4FDC
:10083000808390911802809117026AC0E09118029B
:1008400081E08E0F809318028091BB00F0E0E950A8
:10085000FE4F808380911A02811169C081E08093EC
:10086000F50184EA5DC083E080931B021092F401DD
:10087000CFCF8091F401803208F04DC0E091F401B7
:1008800081E08E0F8093F4018091BB00F0E0EC5288
:10089000FE4F8083BDCF85EC8093BC0010921B027D
:1008A0008091F401803230F4E091F401F0E0EC52F8
:1008B000FE4F10826091F40170E084ED91E0E0E081
:1008C000F0E009951092F40134C084E080931B029B
:1008D0001092D3011092D201E0E0F0E009958091EE
:1008E000D201811105C081E08093D2011092B20142
:1008F000E091D30181E08E0F8093D301F0E0EE54BC
:10090000FE4F80818093BB009091D3018091D201F2
:10091000981708F47DCF85E88093BC000AC085EC69
:100920008093BC0010921B0204C0109219020E9416
:100930001601FF91EF91BF91AF919F918F917F91A0
:100940006F915F914F913F912F910F900FBE0F903C
:100950001F9018953FB7F8948091F0029091F102A2
:10096000A091F202B091F30226B5A89B05C02F3FDB
:1009700019F00196A11DB11D3FBFBA2FA92F982FC5
:100980008827820F911DA11DB11DBC01CD0142E040
:10099000660F771F881F991F4A95D1F708952FB7C3
:1009A000F8946091EC027091ED028091EE029091CA
:1009B000EF022FBF0895CF93C82F682F607F8FED70
:1009C00092E00E94500380E1C89FB00111248FED96
:1009D00092E0CF910C94500381E00E94DB048BE302
:1009E0009FE10197F1F70895CF93DF93EC016987B9
:1009F00018860E946602882319F08885836088879C
:100A00000E94CF046A837B838C839D83DF91CF9187
:100A10000895CF93DF93CDB7DEB728970FB6F8943C
:100A2000DEBF0FBECDBF98E0E2E5F1E0DE0111963A
:100A300001900D929A95E1F79091E702961710F4C4
:100A40006FEF690FFE013196E60FF11DE60FF11D04
:100A50009081890F806828960FB6F894DEBF0FBE8C
:100A6000CDBFDF91CF910C94DB04009769F0FC01BE
:100A700001900020E9F73197AF01481B590BBC01E9
:100A80008FED92E00C94EC0080E090E008954F929E
:100A90005F926F927F928F929F92AF92BF92CF920E
:100AA000DF92EF92FF921F93CF93DF93CDB7DEB724
:100AB00064970FB6F894DEBF0FBECDBF4B015C014B
:100AC000142F20E030E044EB52E40E94D30E20E0EB
:100AD00030E040EF51E40E943F0F0E94B10F6B01E4
:100AE0007C018EE18C9DB0018D9D700D1124072E2F
:100AF000000C880B990B0E94610D20E030E044EB64
:100B000052E40E94D20E9B01AC01C501B4010E94C7
:100B1000D20E20E030E040E251E40E943F0F9B0102
:100B2000AC0160E070E080E291E40E94EC0F2B01E8
:100B30003C010E94B10F4B015C01072E000C880B99
:100B4000990B0E94610D9B01AC01C301B2010E948F
:100B5000D20E20E030E040E251E40E94C00D2B01B3
:100B60003C0120E030E0A9010E94E70F18161CF4B8
:100B7000C301B20103C0C301B20190580E94B10F7A
:100B8000F601E65AFE4F9081292F092E000C330BF7
:100B90003F939F937F936F939F928F9285E991E00C
:100BA0009F938F93CE0101967C019F938F930E9418
:100BB0007313612F80E00E940905C7010E9435056B
:100BC0000FB6F894DEBF0FBECDBF64960FB6F89493
:100BD000DEBF0FBECDBFDF91CF911F91FF90EF9091
:100BE000DF90CF90BF90AF909F908F907F906F904D
:100BF0005F904F9008958F929F92AF92BF92CF9245
:100C0000DF92EF92FF921F93CF93DF93CDB7DEB7C2
:100C100064970FB6F894DEBF0FBECDBF6B017C01A9
:100C2000142F0E94B10F4B015C01072E000C880BA2
:100C3000990B0E94610D9B01AC01C701B6010E9496
:100C4000D20E20E030E040E251E40E94C00D6B0182
:100C50007C0120E030E0A9010E94E70F18161CF487
:100C6000C701B60103C0C701B60190580E94B10F79
:100C70007F936F939F928F9282EA91E09F938F93DD
:100C8000CE0101967C019F938F930E947313612F75
:100C900089E00E940905C7010E9435050FB6F89446
:100CA000DEBF0FBECDBF64960FB6F894DEBF0FBE99
:100CB000CDBFDF91CF911F91FF90EF90DF90CF904C
:100CC000BF90AF909F908F900895CF92DF92EF9258
:100CD000FF920F931F93CF93DF93EC0188858B7F57
:100CE0008887CE010E946602182F888586958170BC
:100CF000181759F00E94CF046A837B838C839D83ED
:100D0000988582E0892788873AC00E94CF04CA80EC
:100D1000DB80EC80FD80AB01BC014C195D096E09E4
:100D20007F098E819F81A0E0B0E0481759076A07CC
:100D30007B0728F188858170181709F10E94CF047C
:100D40006A837B838C839D83988581E08927846077
:100D500088870E94CF040A851B852C853D85DC0190
:100D6000CB01801B910BA20BB30B8E879F87A88BA7
:100D7000B98B0E94CF046A877B878C879D87888583
:100D800082FB882780F9DF91CF911F910F91FF900F
:100D9000EF90DF90CF900895833081F028F4813078
:100DA00099F08230A1F008958730A9F08830B9F029
:100DB0008430D1F4809180008F7D03C080918000C9
:100DC0008F7780938000089584B58F7702C084B5B3
:100DD0008F7D84BD08958091B0008F7703C080918E
:100DE000B0008F7D8093B0000895CF93DF9390E0A3
:100DF000FC01E559FE4F2491FC01E95AFE4F849114
:100E0000882361F190E0880F991FFC01E35BFE4F9E
:100E1000C591D491FC01ED5BFE4FA591B491611198
:100E200009C09FB7F8948881209582238883EC912C
:100E30002E230BC0623061F49FB7F8948881322F63
:100E4000309583238883EC912E2B2C939FBF06C073
:100E50008FB7F894E8812E2B28838FBFDF91CF9135
:100E600008958E3008F08E508770806480937C00E7
:100E700080917A00806480937A0080917A0086FD68
:100E8000FCCF809178002091790090E0922B08951A
:100E90008F929F92AF92BF92CF92DF92EF92FF928A
:100EA0006B017C010E94AA044B015C01C114D104B6
:100EB000E104F104F1F00E94AA04DC01CB018819DD
:100EC0009909AA09BB09883E9340A105B10570F3B1
:100ED00021E0C21AD108E108F10888EE880E83E00B
:100EE000981EA11CB11CC114D104E104F10419F72E
:100EF000DDCFFF90EF90DF90CF90BF90AF909F90AD
:100F00008F9008951F920F920FB60F9211242F9376
:100F10003F938F939F93AF93BF938091EC029091F7
:100F2000ED02A091EE02B091EF023091EB0223E0CE
:100F3000230F2D3720F40196A11DB11D05C026E811
:100F4000230F0296A11DB11D2093EB028093EC02AA
:100F50009093ED02A093EE02B093EF028091F00225
:100F60009091F102A091F202B091F3020196A11DBD
:100F7000B11D8093F0029093F102A093F202B0931E
:100F8000F302BF91AF919F918F913F912F910F905D
:100F90000FBE0F901F901895CF93DF93CDB7DEB79C
:100FA000E8970FB6F894DEBF0FBECDBF789484B536
:100FB000826084BD84B5816084BD85B5826085BD55
:100FC00085B5816085BD80916E00816080936E00E3
:100FD00010928100809181008260809381008091D5
:100FE0008100816080938100809180008160809386
:100FF00080008091B10084608093B1008091B00046
:1010000081608093B00080917A00846080937A0040
:1010100080917A00826080937A0080917A0081606A
:1010200080937A0080917A00806880937A00109291
:10103000C10061E080E10E94F506EFE3F1E08491F8
:10104000EBE7F1E00491E7E6F1E01491112389F078
:1010500081110E94CC06E12FF0E0EE0FFF1FED5B47
:10106000FE4FA591B4918FB7F894EC91E02BEC93DF
:101070008FBF62E087E00E94F50667E070E08DECCC
:1010800092E00E94F40405E010E01093D402009373
:10109000D30262E088E00E94F50668E070E08DE52A
:1010A00092E00E94F404109364020093630262E0F1
:1010B00082E00E94F50662E083E00E94F5068EE37E
:1010C00092E0909301018093000180916900836018
:1010D00080936900E89A8AE192E0909303018093FB
:1010E0000201809169008C6080936900E99A809187
:1010F000E40288608093E40232E0F32EF092E7028B
:1011000062E370E080E090E00E9448076091EA02AC
:101110008FED92E00E94B20168EE73E080E090E013
:101120000E94480760E38FED92E00E9450030BE4B9
:1011300016E4C8010197F1F760E38FED92E00E9499
:101140005003C8010197F1F760E38FED92E00E9430
:10115000500383E592E00197F1F760E28FED92E0B2
:101160000E9450038091E40280620E94DB0484E0CC
:101170008093E5028CE00E94DB040E94EC04F09274
:10118000E60286E00E94DB0482E00E94DB048BE33F
:101190009FE10197F1F788E08093EA0260E08FED2C
:1011A00092E00E94B2010E94EC048E010F5F1F4F7B
:1011B00022242394312C92E1F92E29E3E22E8DECA6
:1011C00092E00E9465068091D50280FD02C082FDFA
:1011D00002C0D12C13C080914F0290915002892BF4
:1011E00059F080914C02811103C281E080934C023E
:1011F0001092470210924602DD24D3948DE592E0CE
:101200000E9465068091650280FD11C082FF0FC0BB
:101210000E94EC0480914F0290915002892B09F0BA
:1012200019C23092500220924F02DD24D3942091B3
:101230004402309145028091420290914302281766
:10124000390709F4D9C020914202309143028091BC
:10125000440290914502821793071CF08FEF9FEF95
:1012600002C081E090E0909341028093400280911F
:101270004F0290915002019709F0B4C080914C0246
:10128000811129C00E94EC0420914002309141025A
:1012900080914D0290914E021216130614F401969D
:1012A00001C0019790934E0280934D0280914D02B0
:1012B00090914E0297FF07C0E4E0F0E0F0934E02F9
:1012C000E0934D028FC005970CF48CC010924E0233
:1012D00010924D0287C080914D0290914E02F89E6F
:1012E000F001F99EF00D1124ED58FD4FDE019796A7
:1012F0008F2D01900D928A95E1F72091480230914F
:10130000490240914A0250914B02B801CE018796A2
:101310000E948F022091400230914102809146024A
:10132000909147024BA55CA5841795070CF0019698
:10133000F801E80FF91F3081230F2083F801E80F2F
:10134000F91F808180335CF4E0828DA49EA4C12CBF
:10135000D12C412C512C612C8FE3782E05C08A337F
:10136000A4F380E38083F1CFC814D90474F420E09F
:1013700030E040E251E4C301B2010E943F0F2B0173
:101380003C019FEFC91AD90AEFCFF8010190002064
:10139000E9F7BF01601B710B80E090E00E9498129A
:1013A0006C01009759F0FC011082B8010E946C1387
:1013B000C6010E94E70B4B015C0103C0812C912CFC
:1013C0005401C6010E940F12A5019401C301B2018C
:1013D0000E94D30E609348027093490280934A02A0
:1013E00090934B0280914202909143029093450268
:1013F00080934402DD24D39480914F029091500257
:10140000892B09F077C08EE00E9431076C0181E1E1
:101410000E9431078C199D09BC017E5F072E000CCC
:10142000880B990B0E94610D2091180130911901D0
:1014300040911A0150911B010E94C00D209104019E
:101440003091050140910601509107010E94D20E92
:1014500020916F023091700240917102509172029E
:101460000E94D30E2B013C018FE00E9431078C19A2
:101470009D09BC017E5F072E000C880B990B0E9412
:10148000610D209136013091370140913801509122
:1014900039010E94C00D2091260130912701409111
:1014A0002801509129010E94D20E20916F023091A3
:1014B000700240917102509172020E94D30E4B0152
:1014C0005C0140E050E0C301B2010E94470541E0E9
:1014D00050E0C501B4010E94470541E050E0C5015C
:1014E000B4010E94FB0540E050E0C301B2010E943C
:1014F000FB0576C0DD2009F473C020914D023091C8
:101500004E02F29EC001F39E900D11248D589D4F06
:10151000FC01DE0197962F2D01900D922A95E1F79F
:10152000FC0180809180C280D38060E080E00E94D6
:101530000905C4010E94350580914C0281110DC03E
:10154000F60180819181A281B381809348029093BA
:101550004902A0934A02B0934B0298A68FA2DAA642
:10156000C9A682E1FE01B796DE01559601900D9263
:101570008A95E1F7209148023091490240914A0250
:1015800050914B02B801CE0145960E948F0261E056
:1015900085E00E940905C8010E94350580914C0232
:1015A0008823B1F08091460290914702298D3A8DAF
:1015B000821793070CF0019661E08B5F0E9409058A
:1015C0008091E502982F91609093E502896006C0B2
:1015D0008091E5028E7F8093E50288600E94DB04A3
:1015E00080E090E0892B09F4EACD0E940000E3CD71
:1015F00080914D0290914E02F89EF001F99EF00DFF
:101600001124ED58FD4F209146023091470246814A
:10161000578184819581840F951F01972817390779
:101620003CF42F5F3F4F3093470220934602E4CDB6
:1016300010924C020280F381E02D8091480290913B
:101640004902A0914A02B0914B0280839183A28308
:10165000B383D2CD1092500210924F0210924702E3
:101660001092460210924E0210924D028091E502B5
:101670008E7F8093E50288600E94DB04D6CD0F93B5
:101680001F93FC01718360835383428324833583DA
:10169000068317831F930F931F9285E28F933F93C7
:1016A0002F931F928F9387E891E09F938F933896A3
:1016B000FF93EF930E9473138DB79EB70C960FB6EE
:1016C000F8949EBF0FBE8DBF1F910F910895EF92AA
:1016D000FF920F931F93CF93DF93E1E5F2E0138224
:1016E000128288EE93E0A0E0B0E084839583A68325
:1016F000B78385E691E091838083EFEDF2E013827A
:1017000012828FE791E09183808387E2848380E176
:10171000818782E082871386EDECF2E087E7E82E8E
:1017200081E0F82EF182E082128213821482158207
:10173000CAE0D0E0D783C6831086118601E010E0AE
:1017400022E030E04FE652E060E471E083E792E0AF
:101750000E943F0B03E010E023E030E046E351E05D
:101760006AE371E085E892E00E943F0B23E030E0FD
:1017700046E251E06AE271E087E992E00E943F0BA5
:1017800023E030E048E151E06CE171E089EA92E069
:101790000E943F0B23E030E044E051E068E071E05C
:1017A0008BEB92E00E943F0BEDE5F2E0F182E082EC
:1017B0001282138214821582D783C6831086118603
:1017C000DF91CF911F910F91FF90EF9008956627C1
:1017D00077270C94EB0BA0E0B0E0E1EFFBE00C947A
:1017E000920EEC016B016115710519F0FB019183FB
:1017F00080837E01FFEFEF1AFF0A0881802F90E0BF
:101800000E94390D892B11F0E701F3CF0D3239F425
:101810007E0182E0E80EF11C098111E008C00B3264
:1018200029F47E0192E0E90EF11C098110E0E70144
:10183000219743E050E062EF70E0CE010E94420D3C
:10184000892BC1F4239645E050E06DEE70E0CE01A7
:101850000E94420D892B09F42596C114D10419F078
:10186000F601D183C0831111F6C060E070E080E81A
:101870009FE7FAC043E050E06AEE70E0CE010E94BC
:10188000420D892B59F4C114D10409F4E9C0F2E0E6
:10189000EF0EF11CF601F182E082E2C020E030E0C0
:1018A000A901C0E0D0E0F70180EDA82EA00E89E0EC
:1018B0008A1530F1912F9260B92E812F887012FF16
:1018C00004C0811124C0219622C081112197A5E076
:1018D000B0E00E94810EDC01CB01880F991FAA1F86
:1018E000BB1F9C01AD012A0D311D411D511D283921
:1018F00089E93807480789E1580748F0166006C0AB
:101900009EEFA9120AC013FD40C01860B12E8FEFE0
:10191000E81AF80A00811B2DC6CF802F8F7D8534F1
:10192000A1F580818D3211F4106106C08B3221F057
:10193000319661E070E004C08181329662E070E02F
:1019400080538A3018F0E61BF70B1FC060E070E090
:1019500060389CE079075CF4DB01AA0FBB1FAA0F7B
:10196000BB1F6A0F7B1F660F771F680F711D3196B3
:10197000DF0111978C9180538A3050F314FF03C01C
:10198000719561957109C60FD71F11FF08C0C11469
:10199000D10429F0CF010197F60191838083CA0118
:1019A000B9010E945F0D212F2370233019F04B01E4
:1019B0005C0106C04B015C01B7FAB094B7F8B09473
:1019C00020E030E0A901C501B4010E945A0D88232E
:1019D00009F43EC0D7FF06C0D195C195D10909E0F1
:1019E00011E002C001E211E06801F8E1CF1AD1086C
:1019F00090E2E92EF12CCE15DF0574F0F801259167
:101A0000359145915491C501B4010E94C00D4B011F
:101A10005C01CE19DF09EFCF04501109F594E7946A
:101A20000C151D0541F78A2D880F8B2D881F8F3FC0
:101A300049F020E030E0A901C501B4010E945A0D2F
:101A4000811106C082E290E09093F5028093F40247
:101A5000C501B40109C060E070E080E89FEF04C0F8
:101A600060E070E080EC9FE7CDB7DEB7ECE00C946F
:101A7000AE0E91110C942D0E803219F089508550C4
:101A8000C8F70895FB01DC014150504088F08D916A
:101A900081341CF08B350CF4805E659161341CF050
:101AA0006B350CF4605E861B611171F3990B089520
:101AB000881BFCCF0E949C0D08F481E00895E894F7
:101AC00009C097FB3EF490958095709561957F4F86
:101AD0008F4F9F4F9923A9F0F92F96E9BB27939534
:101AE000F695879577956795B795F111F8CFFAF444
:101AF000BB0F11F460FF1BC06F5F7F4F8F4F9F4F75
:101B000016C0882311F096E911C0772321F09EE8D2
:101B1000872F762F05C0662371F096E8862F70E038
:101B200060E02AF09A95660F771F881FDAF7880F12
:101B30009695879597F90895990F0008550FAA0B68
:101B4000E0E8FEEF16161706E807F907C0F01216D0
:101B50001306E407F50798F0621B730B840B950BD3
:101B600039F40A2661F0232B242B252B21F4089528
:101B70000A2609F4A140A6958FEF811D811D0895C5
:101B80000E94D30D0C94470E0E94390E38F00E942B
:101B9000400E20F0952311F00C94300E0C94360E6C
:101BA00011240C947B0E0E94580E70F3959FC1F384
:101BB000950F50E0551F629FF001729FBB27F00DFB
:101BC000B11D639FAA27F00DB11DAA1F649F662750
:101BD000B00DA11D661F829F2227B00DA11D621F9F
:101BE000739FB00DA11D621F839FA00D611D221F59
:101BF000749F3327A00D611D231F849F600D211D3D
:101C0000822F762F6A2F11249F5750409AF0F1F0BF
:101C100088234AF0EE0FFF1FBB1F661F771F881F28
:101C200091505040A9F79E3F510580F00C94300E22
:101C30000C947B0E5F3FE4F3983ED4F38695779542
:101C40006795B795F795E7959F5FC1F7FE2B880FCE
:101C5000911D9695879597F9089599278827089556
:101C600097F99F6780E870E060E008959FEF80EC4F
:101C7000089500240A9416161706180609060895F2
:101C800000240A9412161306140605060895092E58
:101C90000394000C11F4882352F0BB0F40F4BF2BC7
:101CA00011F460FF04C06F5F7F4F8F4F9F4F089507
:101CB00057FD9058440F551F59F05F3F71F04795FD
:101CC000880F97FB991F61F09F3F79F087950895E2
:101CD000121613061406551FF2CF4695F1DF08C001
:101CE000161617061806991FF1CF8695710561051E
:101CF00008940895E894BB2766277727CB0197F9C6
:101D000008950E94C30EA59F900DB49F900DA49FAF
:101D1000800D911D112408952F923F924F925F9252
:101D20006F927F928F929F92AF92BF92CF92DF92EB
:101D3000EF92FF920F931F93CF93DF93CDB7DEB750
:101D4000CA1BDB0B0FB6F894DEBF0FBECDBF0994E4
:101D50002A88398848885F846E847D848C849B843B
:101D6000AA84B984C884DF80EE80FD800C811B8149
:101D7000AA81B981CE0FD11D0FB6F894DEBF0FBE78
:101D8000CDBFED010895A29FB001B39FC001A39FF5
:101D9000700D811D1124911DB29F700D811D1124A4
:101DA000911D08955058BB27AA270E94EA0E0C9453
:101DB000470E0E94390E38F00E94400E20F039F490
:101DC0009F3F19F426F40C94360E0EF4E095E7FBD1
:101DD0000C94300EE92F0E94580E58F3BA17620780
:101DE00073078407950720F079F4A6F50C947A0E12
:101DF0000EF4E0950B2EBA2FA02D0B01B901900126
:101E00000C01CA01A0011124FF27591B99F0593F69
:101E100050F4503E68F11A16F040A22F232F342FB1
:101E20004427585FF3CF469537952795A795F040FF
:101E30005395C9F77EF41F16BA0B620B730B840B14
:101E4000BAF09150A1F0FF0FBB1F661F771F881FCC
:101E5000C2F70EC0BA0F621F731F841F48F4879524
:101E600077956795B795F7959E3F08F0B0CF939516
:101E7000880F08F09927EE0F9795879508950E948F
:101E8000530F0C94470E0E94400E58F00E94390EDA
:101E900040F029F45F3F29F00C94300E51110C945E
:101EA0007B0E0C94360E0E94580E68F39923B1F302
:101EB000552391F3951B550BBB27AA276217730770
:101EC000840738F09F5F5F4F220F331F441FAA1F04
:101ED000A9F335D00E2E3AF0E0E832D091505040C0
:101EE000E695001CCAF72BD0FE2F29D0660F771F6E
:101EF000881FBB1F261737074807AB07B0E809F054
:101F0000BB0B802DBF01FF2793585F4F3AF09E3FD8
:101F1000510578F00C94300E0C947B0E5F3FE4F387
:101F2000983ED4F3869577956795B795F7959F5F1B
:101F3000C9F7880F911D9695879597F90895E1E067
:101F4000660F771F881FBB1F621773078407BA07C6
:101F500020F0621B730B840BBA0BEE1F88F7E09521
:101F600008950E94B80F6894B1110C947B0E0895E7
:101F70000E94600E88F09F5798F0B92F9927B751AB
:101F8000B0F0E1F0660F771F881F991F1AF0BA951D
:101F9000C9F714C0B13091F00E947A0EB1E00895F3
:101FA0000C947A0E672F782F8827B85F39F0B93FE5
:101FB000CCF3869577956795B395D9F73EF49095D0
:101FC0008095709561957F4F8F4F9F4F08950E9428
:101FD0009C0D08F48FEF0895FA01EE0FFF1F309665
:101FE00021053105A1F16115710561F48038BFE368
:101FF0009B0749F168949038810561F08038BFEF04
:102000009B0741F099234AF5FF3FE1053105210582
:1020100019F1E8940894E795D901AA2329F4AB2F84
:10202000BE2FF85FD0F310C0FF5F70F4A695E0F705
:10203000F73950F019F0FF3A38F49F779F930DD09D
:102040000F9007FC9058089546F00C94360E60E00F
:1020500070E080E89FE308954FE79F775F934F9389
:102060003F932F930E94E7102F913F914F915F91E3
:102070000E94C00D0C94441029F416F00C94300EFC
:102080000C947A0E0C94360E0E94600EA8F39638CB
:10209000A0F707F80F92E8942BE33AEA48EB5FE7E2
:1020A0000E94D60D0F920F920F924DB75EB70F920E
:1020B0000E942F11E8E6F0E00E9476104F915F91A8
:1020C000EF91FF91E595EE1FFF1F49F0FE57E06885
:1020D0004427EE0F441FFA95E1F74195550B0E94F6
:1020E000A9100F9007FE0C949D100895DF93CF93D5
:1020F0001F930F93FF92EF92DF927B018C01689404
:1021000006C0DA2EEF010E94D30DFE01E894A591DE
:102110002591359145915591A6F3EF010E94EA0E64
:10212000FE019701A801DA9469F7DF90EF90FF9024
:102130000F911F91CF91DF9108959B01AC0160E059
:1021400070E080E89FE30C943F0F0C94300E0C94E9
:1021500063110E94600ED8F39923C9F3940F511DA7
:10216000A3F39150504094F059F0882332F0660F59
:10217000771F881F91505040C1F79E3F51052CF7A3
:10218000880F911D9695879597F908955F3FACF05C
:10219000983E9CF0BB27869577956795B79508F490
:1021A000B1609395C1F7BB0F58F711F460FFE8CF0A
:1021B0006F5F7F4F8F4F9F4FE3CF0C947B0E16F0D6
:1021C0000C9463110C94360E68940C94300E0E949B
:1021D000600EA8F39923C1F3AEF3DF93CF931F935F
:1021E0000F93FF92C92FDD2788232AF02197660FCE
:1021F000771F881FDAF720E030E040E85FEB9FE3CD
:10220000883920F0803E38F021968F770E94D30ED7
:10221000E0E9F0E004C00E94D30EEDEBF0E00E9494
:1022200076108B01BE01EC01FB2E6F57710975957D
:10223000771F880B990B0E94610D28E132E741E37B
:102240005FE30E94D30DAF2D9801AE01FF900F9177
:102250001F91CF91DF910E94EA0E0C94470EFA0174
:10226000DC01AA0FBB1F9B01AC01BF5728F422273A
:1022700033274427507820C0B75190F4AB2F002467
:10228000469537952795011CA395D2F3002071F050
:10229000220F331F441FB395DAF30ED00C94D20EE5
:1022A00061307105A0E88A07B94630F49B01AC01A2
:1022B0006627772788279078309621F0208331830E
:1022C0004283538308959F3F31F0915020F48795C6
:1022D00077956795B795880F911D9695879597F98E
:1022E0000895EE0FFF1F0590F491E02D09940F93D0
:1022F0001F93CF93DF938230910510F482E090E03A
:10230000E091F802F091F90220E030E0A0E0B0E0C6
:10231000309719F140815181028113814817590783
:10232000C8F08417950769F4109731F012960C9352
:10233000129713961C9327C00093F8021093F9028A
:1023400022C02115310519F04217530718F49A01DC
:10235000BD01EF01DF01F801DBCF21153105F9F0F7
:10236000281B390B2430310580F48A819B8161154B
:10237000710521F0FB019383828304C09093F902DD
:102380008093F802FE01329644C0FE01E20FF31F73
:102390008193919322503109398328833AC0209147
:1023A000F6023091F702232B41F420914E01309137
:1023B0004F013093F7022093F60220914C013091A7
:1023C0004D012115310541F42DB73EB74091500123
:1023D00050915101241B350BE091F602F091F70268
:1023E000E217F307A0F42E1B3F0B2817390778F0EC
:1023F000AC014E5F5F4F2417350748F04E0F5F1F4B
:102400005093F7024093F6028193919302C0E0E06B
:10241000F0E0CF01DF91CF911F910F910895CF93FD
:10242000DF93009709F481C0FC0132971382128276
:10243000A091F802B091F902109781F420813181C6
:10244000820F931F2091F6023091F7022817390767
:1024500051F5F093F702E093F60267C0ED0120E03A
:1024600030E0CE17DF0740F44A815B819E014115C1
:102470005105F1F0EA01F5CFD383C2834081518148
:10248000840F951FC817D90759F488819981840F43
:10249000951F0296918380838A819B819383828397
:1024A0002115310529F4F093F902E093F8023DC0BB
:1024B000E901FB83EA8349915991C40FD51FEC17B9
:1024C000FD0761F480819181840F951F0296E901D7
:1024D00099838883828193819B838A83E0E0F0E003
:1024E00012968D919C911397009719F0FD01DC01D4
:1024F000F7CF8D919C9111979D012E5F3F4F820FD9
:10250000931F2091F6023091F7022817390769F4DA
:10251000309729F41092F9021092F80202C0138247
:102520001282B093F702A093F602DF91CF91089543
:10253000A0E0B0E0EEE9F2E10C94900EEC0100971F
:1025400021F4CB010E947711B4C0FC01E60FF71F04
:102550009C0122503109E217F30708F4A8C0D90101
:102560000D911C91119706171707B0F00530110552
:1025700008F49BC0C80104978617970708F495C014
:1025800002501109061B170B019311936D937C9355
:10259000CF010E940F1289C05B01A01AB10A4C0141
:1025A000800E911EA091F802B091F902612C712C5D
:1025B000E12CF12C109709F446C08D919C91119754
:1025C000A815B905B1F56C0142E0C40ED11CCA14BE
:1025D000DB0478F14C018A189B08640142E0C40EC8
:1025E000D11C1296BC9012971396AC91B5E0CB1605
:1025F000D10440F0B282A38391828082D9016D938D
:102600007C9309C00E5F1F4F800F911FF9019183CA
:102610008083EB2DFA2FE114F10431F0D7011396EA
:10262000FC93EE93129741C0F093F902E093F80205
:102630003CC06816790608F43C017D0112960D90A5
:10264000BC91A02DB7CF8091F6029091F702881629
:102650009906E1F466167706C8F480914C019091D2
:102660004D01009741F48DB79EB7409150015091B4
:102670005101841B950BE817F907C8F4F093F70292
:10268000E093F602F901718360830FC0CB010E94D1
:1026900077117C01009759F0A801BE010E946313D5
:1026A000CE010E940F12C70104C0CE0102C080E01B
:1026B00090E0CDB7DEB7EEE00C94AC0E81E090E098
:1026C000F8940C942616FB01DC0102C001900D92D7
:1026D00041505040D8F70895FB01DC0101900D9264
:1026E0000020E1F70895AEE0B0E0E9E7F3E10C94F3
:1026F0009A0E0D891E8986E08C831A8309838FEFD9
:102700009FE79E838D83AE01475E5F4F6F89788D13
:10271000CE0101960E949513EF81F885E00FF11F1D
:1027200010822E96E4E00C94B60EABE0B0E0EBE93C
:10273000F3E10C948C0E6C017B018A01FC01178281
:102740001682838181FFCCC1CE0101963C01F60146
:102750009381F70193FD859193FF81917F018823F8
:1027600009F4BAC1853239F493FD859193FF8191C3
:102770007F01853229F4B60190E00E948C15E7CFE5
:10278000912C212C312CFFE1F315D8F08B3279F00C
:1027900038F4803279F08332A1F4232D20611DC0FA
:1027A0008D3261F0803369F4232D216016C0832DB2
:1027B0008260382EE32DE4603E2E2AC0F32DF860AF
:1027C0001DC037FC2DC020ED280F2A3040F08E327E
:1027D000B9F436FC81C1232D2064322E19C036FE97
:1027E00006C08AE0989E200D1124922E11C0EAE0C6
:1027F0002E9E200D1124222EF32DF0623F2E08C0B4
:102800008C3621F4832D8068382E02C0883641F43E
:10281000F70193FD859193FF81917F018111B3CFE2
:10282000982F9F7D9554933028F40C5F1F4F9FE3A2
:1028300099830DC0833631F0833771F0833509F009
:1028400059C021C0F801808189830E5F1F4F882401
:102850008394912C530113C02801F2E04F0E511CB8
:10286000F801A080B18036FE03C0692D70E002C07F
:102870006FEF7FEFC5010E9481154C018201F32D9E
:10288000FF773F2E16C0280122E0420E511CF801AE
:10289000A080B18036FE03C0692D70E002C06FEFEA
:1028A0007FEFC5010E9476154C01F32DF0683F2E95
:1028B000820133FC1BC0822D90E088169906B0F48B
:1028C000B60180E290E00E948C152A94F4CFF501C5
:1028D00037FC859137FE81915F01B60190E00E943F
:1028E0008C1521102A9421E0821A910881149104F8
:1028F00071F7E8C0843611F0893641F5F80137FEEA
:1029000007C060817181828193810C5F1F4F08C075
:1029100060817181072E000C880B990B0E5F1F4F91
:10292000F32DFF763F2E97FF09C090958095709507
:1029300061957F4F8F4F9F4FF0683F2E2AE030E028
:10294000A3010E94C815882E861845C0853731F42A
:10295000232D2F7EB22E2AE030E025C0932D997FC3
:10296000B92E8F36C1F018F4883579F0B5C08037AC
:1029700019F0883721F0B0C0E92FE061BE2EB4FE17
:102980000DC0FB2DF460BF2E09C034FE0AC0292FF4
:102990002660B22E06C028E030E005C020E130E01D
:1029A00002C020E132E0F801B7FE07C0608171810A
:1029B000828193810C5F1F4F06C06081718180E02E
:1029C00090E00E5F1F4FA3010E94C815882E861845
:1029D000FB2DFF773F2E36FE0DC0232D2E7FA22E1E
:1029E000891458F434FE0BC032FC09C0832D8E7E4E
:1029F000A82E05C0B82CA32C03C0B82C01C0B92C3C
:102A0000A4FE0FC0FE01E80DF11D8081803321F48A
:102A10009A2D997EA92E09C0A2FE06C0B394B39444
:102A200004C08A2D867809F0B394A3FC11C0A0FEDF
:102A300006C0B21488F4280C922C9B180EC0B21455
:102A400060F4B60180E290E00E948C15B394F7CF59
:102A5000B21418F42B1802C0982C212CA4FE10C01C
:102A6000B60180E390E00E948C15A2FE17C0A1FC85
:102A700003C088E790E002C088E590E0B6010CC092
:102A80008A2D867859F0A1FE02C08BE201C080E257
:102A9000A7FC8DE2B60190E00E948C15891438F4F1
:102AA000B60180E390E00E948C159A94F7CF8A9447
:102AB000F301E80DF11D8081B60190E00E948C15B4
:102AC0008110F5CF222009F442CEB60180E290E0D9
:102AD0000E948C152A94F6CFF6018681978102C058
:102AE0008FEF9FEF2B96E2E10C94A80EFC0105906E
:102AF000615070400110D8F7809590958E0F9F1F00
:102B00000895FC016150704001900110D8F7809544
:102B100090958E0F9F1F08950F931F93CF93DF9370
:102B2000FB01238121FD03C08FEF9FEF2CC022FF0B
:102B300016C046815781248135814217530744F4DA
:102B4000A081B1819D012F5F3F4F318320838C9302
:102B5000268137812F5F3F4F3783268314C08B0137
:102B6000EC01FB010084F185E02D0995892BE1F64C
:102B7000D80116968D919C911797019617969C9364
:102B80008E931697CE01DF91CF911F910F910895EB
:102B9000FA01AA27283051F1203181F1E8946F938E
:102BA0006E7F6E5F7F4F8F4F9F4FAF4FB1E03ED034
:102BB000B4E03CD0670F781F891F9A1FA11D680FD2
:102BC000791F8A1F911DA11D6A0F711D811D911D05
:102BD000A11D20D009F468943F912AE0269F11247A
:102BE0003019305D3193DEF6CF010895462F4770DE
:102BF000405D4193B3E00FD0C9F7F6CF462F4F7039
:102C0000405D4A3318F0495D31FD4052419302D096
:102C1000A9F7EACFB4E0A69597958795779567953C
:102C2000BA95C9F700976105710508959B01AC013C
:102C30000A2E06945795479537952795BA95C9F763
:102C4000620F731F841F951FA01D0895F894FFCF76
:102C5000EB00EB0042E08D425920496E74657263CF
:102C600065707420285229009EEF273E536C6F70C8
:102C700065202852290075D390425920496E746509
:102C8000726365707400C3F5283E536C6F70650005
:102C9000496E70757420417474656E000000FA020C
:102CA00080000000400014005400706E756D206BB1
:102CB000000000000083015601170248014F014C3B
:102CC0000149010000000066026202000000006984
:102CD00003EC00170216022563302564642E256379
:102CE00030256464002533642E253031642025634B
:0E2CF0005700282533642E253031642900005A
:107E0000112484B714BE81FFF0D085E080938100F7
:107E100082E08093C00088E18093C10086E0809377
:107E2000C20080E18093C4008EE0C9D0259A86E02C
:107E300020E33CEF91E0309385002093840096BBD3
:107E4000B09BFECF1D9AA8958150A9F7CC24DD24C4
:107E500088248394B5E0AB2EA1E19A2EF3E0BF2EE7
:107E6000A2D0813461F49FD0082FAFD0023811F036
:107E7000013811F484E001C083E08DD089C08234E0
:107E800011F484E103C0853419F485E0A6D080C0E4
:107E9000853579F488D0E82EFF2485D0082F10E0AE
:107EA000102F00270E291F29000F111F8ED06801E7
:107EB0006FC0863521F484E090D080E0DECF843638
:107EC00009F040C070D06FD0082F6DD080E0C81688
:107ED00080E7D80618F4F601B7BEE895C0E0D1E017
:107EE00062D089930C17E1F7F0E0CF16F0E7DF06D8
:107EF00018F0F601B7BEE89568D007B600FCFDCFD4
:107F0000A601A0E0B1E02C9130E011968C91119780
:107F100090E0982F8827822B932B1296FA010C0160
:107F200087BEE89511244E5F5F4FF1E0A038BF0790
:107F300051F7F601A7BEE89507B600FCFDCF97BE46
:107F4000E89526C08437B1F42ED02DD0F82E2BD052
:107F50003CD0F601EF2C8F010F5F1F4F84911BD097
:107F6000EA94F801C1F70894C11CD11CFA94CF0C13
:107F7000D11C0EC0853739F428D08EE10CD085E9AC
:107F80000AD08FE07ACF813511F488E018D01DD067
:107F900080E101D065CF982F8091C00085FFFCCF94
:107FA0009093C60008958091C00087FFFCCF809118
:107FB000C00084FD01C0A8958091C6000895E0E648
:107FC000F0E098E1908380830895EDDF803219F02E
:107FD00088E0F5DFFFCF84E1DECF1F93182FE3DFCA
:107FE0001150E9F7F2DF1F91089580E0E8DFEE27F6
:047FF000FF270994CA
:027FFE00040479
:0400000300007E007B
:00000001FF
